{
  "contractName": "SportMinter",
  "abi": [
    {
      "inputs": [],
      "stateMutability": "nonpayable",
      "type": "constructor"
    },
    {
      "inputs": [
        {
          "internalType": "address",
          "name": "sender",
          "type": "address"
        },
        {
          "internalType": "uint256",
          "name": "tokenId",
          "type": "uint256"
        },
        {
          "internalType": "address",
          "name": "owner",
          "type": "address"
        }
      ],
      "name": "ERC721IncorrectOwner",
      "type": "error"
    },
    {
      "inputs": [
        {
          "internalType": "address",
          "name": "operator",
          "type": "address"
        },
        {
          "internalType": "uint256",
          "name": "tokenId",
          "type": "uint256"
        }
      ],
      "name": "ERC721InsufficientApproval",
      "type": "error"
    },
    {
      "inputs": [
        {
          "internalType": "address",
          "name": "approver",
          "type": "address"
        }
      ],
      "name": "ERC721InvalidApprover",
      "type": "error"
    },
    {
      "inputs": [
        {
          "internalType": "address",
          "name": "operator",
          "type": "address"
        }
      ],
      "name": "ERC721InvalidOperator",
      "type": "error"
    },
    {
      "inputs": [
        {
          "internalType": "address",
          "name": "owner",
          "type": "address"
        }
      ],
      "name": "ERC721InvalidOwner",
      "type": "error"
    },
    {
      "inputs": [
        {
          "internalType": "address",
          "name": "receiver",
          "type": "address"
        }
      ],
      "name": "ERC721InvalidReceiver",
      "type": "error"
    },
    {
      "inputs": [
        {
          "internalType": "address",
          "name": "sender",
          "type": "address"
        }
      ],
      "name": "ERC721InvalidSender",
      "type": "error"
    },
    {
      "inputs": [
        {
          "internalType": "uint256",
          "name": "tokenId",
          "type": "uint256"
        }
      ],
      "name": "ERC721NonexistentToken",
      "type": "error"
    },
    {
      "inputs": [
        {
          "internalType": "address",
          "name": "owner",
          "type": "address"
        }
      ],
      "name": "OwnableInvalidOwner",
      "type": "error"
    },
    {
      "inputs": [
        {
          "internalType": "address",
          "name": "account",
          "type": "address"
        }
      ],
      "name": "OwnableUnauthorizedAccount",
      "type": "error"
    },
    {
      "anonymous": false,
      "inputs": [
        {
          "indexed": true,
          "internalType": "address",
          "name": "owner",
          "type": "address"
        },
        {
          "indexed": true,
          "internalType": "address",
          "name": "approved",
          "type": "address"
        },
        {
          "indexed": true,
          "internalType": "uint256",
          "name": "tokenId",
          "type": "uint256"
        }
      ],
      "name": "Approval",
      "type": "event"
    },
    {
      "anonymous": false,
      "inputs": [
        {
          "indexed": true,
          "internalType": "address",
          "name": "owner",
          "type": "address"
        },
        {
          "indexed": true,
          "internalType": "address",
          "name": "operator",
          "type": "address"
        },
        {
          "indexed": false,
          "internalType": "bool",
          "name": "approved",
          "type": "bool"
        }
      ],
      "name": "ApprovalForAll",
      "type": "event"
    },
    {
      "anonymous": false,
      "inputs": [
        {
          "indexed": false,
          "internalType": "uint256",
          "name": "tokenId",
          "type": "uint256"
        },
        {
          "indexed": false,
          "internalType": "address",
          "name": "from",
          "type": "address"
        },
        {
          "indexed": false,
          "internalType": "address",
          "name": "to",
          "type": "address"
        },
        {
          "indexed": false,
          "internalType": "uint256",
          "name": "value",
          "type": "uint256"
        }
      ],
      "name": "NFTSold",
      "type": "event"
    },
    {
      "anonymous": false,
      "inputs": [
        {
          "indexed": true,
          "internalType": "address",
          "name": "previousOwner",
          "type": "address"
        },
        {
          "indexed": true,
          "internalType": "address",
          "name": "newOwner",
          "type": "address"
        }
      ],
      "name": "OwnershipTransferred",
      "type": "event"
    },
    {
      "anonymous": false,
      "inputs": [
        {
          "indexed": true,
          "internalType": "address",
          "name": "from",
          "type": "address"
        },
        {
          "indexed": true,
          "internalType": "address",
          "name": "to",
          "type": "address"
        },
        {
          "indexed": true,
          "internalType": "uint256",
          "name": "tokenId",
          "type": "uint256"
        }
      ],
      "name": "Transfer",
      "type": "event"
    },
    {
      "inputs": [
        {
          "internalType": "address",
          "name": "to",
          "type": "address"
        },
        {
          "internalType": "uint256",
          "name": "tokenId",
          "type": "uint256"
        }
      ],
      "name": "approve",
      "outputs": [],
      "stateMutability": "nonpayable",
      "type": "function"
    },
    {
      "inputs": [
        {
          "internalType": "address",
          "name": "owner",
          "type": "address"
        }
      ],
      "name": "balanceOf",
      "outputs": [
        {
          "internalType": "uint256",
          "name": "",
          "type": "uint256"
        }
      ],
      "stateMutability": "view",
      "type": "function",
      "constant": true
    },
    {
      "inputs": [
        {
          "internalType": "uint256",
          "name": "tokenId",
          "type": "uint256"
        }
      ],
      "name": "getApproved",
      "outputs": [
        {
          "internalType": "address",
          "name": "",
          "type": "address"
        }
      ],
      "stateMutability": "view",
      "type": "function",
      "constant": true
    },
    {
      "inputs": [
        {
          "internalType": "address",
          "name": "owner",
          "type": "address"
        },
        {
          "internalType": "address",
          "name": "operator",
          "type": "address"
        }
      ],
      "name": "isApprovedForAll",
      "outputs": [
        {
          "internalType": "bool",
          "name": "",
          "type": "bool"
        }
      ],
      "stateMutability": "view",
      "type": "function",
      "constant": true
    },
    {
      "inputs": [],
      "name": "name",
      "outputs": [
        {
          "internalType": "string",
          "name": "",
          "type": "string"
        }
      ],
      "stateMutability": "view",
      "type": "function",
      "constant": true
    },
    {
      "inputs": [],
      "name": "owner",
      "outputs": [
        {
          "internalType": "address",
          "name": "",
          "type": "address"
        }
      ],
      "stateMutability": "view",
      "type": "function",
      "constant": true
    },
    {
      "inputs": [
        {
          "internalType": "uint256",
          "name": "tokenId",
          "type": "uint256"
        }
      ],
      "name": "ownerOf",
      "outputs": [
        {
          "internalType": "address",
          "name": "",
          "type": "address"
        }
      ],
      "stateMutability": "view",
      "type": "function",
      "constant": true
    },
    {
      "inputs": [],
      "name": "renounceOwnership",
      "outputs": [],
      "stateMutability": "nonpayable",
      "type": "function"
    },
    {
      "inputs": [
        {
          "internalType": "address",
          "name": "from",
          "type": "address"
        },
        {
          "internalType": "address",
          "name": "to",
          "type": "address"
        },
        {
          "internalType": "uint256",
          "name": "tokenId",
          "type": "uint256"
        }
      ],
      "name": "safeTransferFrom",
      "outputs": [],
      "stateMutability": "nonpayable",
      "type": "function"
    },
    {
      "inputs": [
        {
          "internalType": "address",
          "name": "from",
          "type": "address"
        },
        {
          "internalType": "address",
          "name": "to",
          "type": "address"
        },
        {
          "internalType": "uint256",
          "name": "tokenId",
          "type": "uint256"
        },
        {
          "internalType": "bytes",
          "name": "data",
          "type": "bytes"
        }
      ],
      "name": "safeTransferFrom",
      "outputs": [],
      "stateMutability": "nonpayable",
      "type": "function"
    },
    {
      "inputs": [
        {
          "internalType": "address",
          "name": "operator",
          "type": "address"
        },
        {
          "internalType": "bool",
          "name": "approved",
          "type": "bool"
        }
      ],
      "name": "setApprovalForAll",
      "outputs": [],
      "stateMutability": "nonpayable",
      "type": "function"
    },
    {
      "inputs": [
        {
          "internalType": "bytes4",
          "name": "interfaceId",
          "type": "bytes4"
        }
      ],
      "name": "supportsInterface",
      "outputs": [
        {
          "internalType": "bool",
          "name": "",
          "type": "bool"
        }
      ],
      "stateMutability": "view",
      "type": "function",
      "constant": true
    },
    {
      "inputs": [],
      "name": "symbol",
      "outputs": [
        {
          "internalType": "string",
          "name": "",
          "type": "string"
        }
      ],
      "stateMutability": "view",
      "type": "function",
      "constant": true
    },
    {
      "inputs": [
        {
          "internalType": "address",
          "name": "from",
          "type": "address"
        },
        {
          "internalType": "address",
          "name": "to",
          "type": "address"
        },
        {
          "internalType": "uint256",
          "name": "tokenId",
          "type": "uint256"
        }
      ],
      "name": "transferFrom",
      "outputs": [],
      "stateMutability": "nonpayable",
      "type": "function"
    },
    {
      "inputs": [
        {
          "internalType": "address",
          "name": "newOwner",
          "type": "address"
        }
      ],
      "name": "transferOwnership",
      "outputs": [],
      "stateMutability": "nonpayable",
      "type": "function"
    },
    {
      "inputs": [
        {
          "internalType": "address",
          "name": "to",
          "type": "address"
        },
        {
          "internalType": "uint256",
          "name": "tokenId",
          "type": "uint256"
        }
      ],
      "name": "safeMint",
      "outputs": [],
      "stateMutability": "nonpayable",
      "type": "function"
    },
    {
      "inputs": [
        {
          "internalType": "string",
          "name": "baseURI",
          "type": "string"
        }
      ],
      "name": "setBaseURI",
      "outputs": [],
      "stateMutability": "nonpayable",
      "type": "function"
    },
    {
      "inputs": [
        {
          "internalType": "uint256",
          "name": "tokenId",
          "type": "uint256"
        }
      ],
      "name": "tokenURI",
      "outputs": [
        {
          "internalType": "string",
          "name": "",
          "type": "string"
        }
      ],
      "stateMutability": "view",
      "type": "function",
      "constant": true
    },
    {
      "inputs": [
        {
          "internalType": "uint256",
          "name": "tokenId",
          "type": "uint256"
        }
      ],
      "name": "buyNFT",
      "outputs": [],
      "stateMutability": "payable",
      "type": "function",
      "payable": true
    }
  ],
  "bytecode": "0x608060405234801562000010575f80fd5b50336040518060400160405280600581526020017f4d794e46540000000000000000000000000000000000000000000000000000008152506040518060400160405280600481526020017f4d4e465400000000000000000000000000000000000000000000000000000000815250815f90816200008e91906200045c565b508060019081620000a091906200045c565b5050505f73ffffffffffffffffffffffffffffffffffffffff168173ffffffffffffffffffffffffffffffffffffffff160362000116575f6040517f1e4fbdf70000000000000000000000000000000000000000000000000000000081526004016200010d919062000583565b60405180910390fd5b62000127816200013560201b60201c565b505f6007819055506200059e565b5f60065f9054906101000a900473ffffffffffffffffffffffffffffffffffffffff1690508160065f6101000a81548173ffffffffffffffffffffffffffffffffffffffff021916908373ffffffffffffffffffffffffffffffffffffffff1602179055508173ffffffffffffffffffffffffffffffffffffffff168173ffffffffffffffffffffffffffffffffffffffff167f8be0079c531659141344cd1fd0a4f28419497f9722a3daafe3b4186f6b6457e060405160405180910390a35050565b5f81519050919050565b7f4e487b71000000000000000000000000000000000000000000000000000000005f52604160045260245ffd5b7f4e487b71000000000000000000000000000000000000000000000000000000005f52602260045260245ffd5b5f60028204905060018216806200027457607f821691505b6020821081036200028a57620002896200022f565b5b50919050565b5f819050815f5260205f209050919050565b5f6020601f8301049050919050565b5f82821b905092915050565b5f60088302620002ee7fffffffffffffffffffffffffffffffffffffffffffffffffffffffffffffffff82620002b1565b620002fa8683620002b1565b95508019841693508086168417925050509392505050565b5f819050919050565b5f819050919050565b5f620003446200033e620003388462000312565b6200031b565b62000312565b9050919050565b5f819050919050565b6200035f8362000324565b620003776200036e826200034b565b848454620002bd565b825550505050565b5f90565b6200038d6200037f565b6200039a81848462000354565b505050565b5b81811015620003c157620003b55f8262000383565b600181019050620003a0565b5050565b601f8211156200041057620003da8162000290565b620003e584620002a2565b81016020851015620003f5578190505b6200040d6200040485620002a2565b8301826200039f565b50505b505050565b5f82821c905092915050565b5f620004325f198460080262000415565b1980831691505092915050565b5f6200044c838362000421565b9150826002028217905092915050565b6200046782620001f8565b67ffffffffffffffff81111562000483576200048262000202565b5b6200048f82546200025c565b6200049c828285620003c5565b5f60209050601f831160018114620004d2575f8415620004bd578287015190505b620004c985826200043f565b86555062000538565b601f198416620004e28662000290565b5f5b828110156200050b57848901518255600182019150602085019450602081019050620004e4565b868310156200052b578489015162000527601f89168262000421565b8355505b6001600288020188555050505b505050505050565b5f73ffffffffffffffffffffffffffffffffffffffff82169050919050565b5f6200056b8262000540565b9050919050565b6200057d816200055f565b82525050565b5f602082019050620005985f83018462000572565b92915050565b612b4180620005ac5f395ff3fe608060405260043610610113575f3560e01c806370a082311161009f578063a22cb46511610063578063a22cb4651461037f578063b88d4fde146103a7578063c87b56dd146103cf578063e985e9c51461040b578063f2fde38b1461044757610113565b806370a08231146102b1578063715018a6146102ed5780638da5cb5b1461030357806395d89b411461032d578063a14481941461035757610113565b806323b872dd116100e657806323b872dd146101e157806342842e0e1461020957806351ed82881461023157806355f804b31461024d5780636352211e1461027557610113565b806301ffc9a71461011757806306fdde0314610153578063081812fc1461017d578063095ea7b3146101b9575b5f80fd5b348015610122575f80fd5b5061013d60048036038101906101389190611c58565b61046f565b60405161014a9190611c9d565b60405180910390f35b34801561015e575f80fd5b50610167610550565b6040516101749190611d40565b60405180910390f35b348015610188575f80fd5b506101a3600480360381019061019e9190611d93565b6105df565b6040516101b09190611dfd565b60405180910390f35b3480156101c4575f80fd5b506101df60048036038101906101da9190611e40565b6105fa565b005b3480156101ec575f80fd5b5061020760048036038101906102029190611e7e565b610610565b005b348015610214575f80fd5b5061022f600480360381019061022a9190611e7e565b61070f565b005b61024b60048036038101906102469190611d93565b61072e565b005b348015610258575f80fd5b50610273600480360381019061026e9190611ffa565b610967565b005b348015610280575f80fd5b5061029b60048036038101906102969190611d93565b610982565b6040516102a89190611dfd565b60405180910390f35b3480156102bc575f80fd5b506102d760048036038101906102d29190612041565b610993565b6040516102e4919061207b565b60405180910390f35b3480156102f8575f80fd5b50610301610a49565b005b34801561030e575f80fd5b50610317610a5c565b6040516103249190611dfd565b60405180910390f35b348015610338575f80fd5b50610341610a84565b60405161034e9190611d40565b60405180910390f35b348015610362575f80fd5b5061037d60048036038101906103789190611e40565b610b14565b005b34801561038a575f80fd5b506103a560048036038101906103a091906120be565b610bac565b005b3480156103b2575f80fd5b506103cd60048036038101906103c8919061219a565b610bc2565b005b3480156103da575f80fd5b506103f560048036038101906103f09190611d93565b610bdf565b6040516104029190611d40565b60405180910390f35b348015610416575f80fd5b50610431600480360381019061042c919061221a565b610c5b565b60405161043e9190611c9d565b60405180910390f35b348015610452575f80fd5b5061046d60048036038101906104689190612041565b610ce9565b005b5f7f80ac58cd000000000000000000000000000000000000000000000000000000007bffffffffffffffffffffffffffffffffffffffffffffffffffffffff1916827bffffffffffffffffffffffffffffffffffffffffffffffffffffffff1916148061053957507f5b5e139f000000000000000000000000000000000000000000000000000000007bffffffffffffffffffffffffffffffffffffffffffffffffffffffff1916827bffffffffffffffffffffffffffffffffffffffffffffffffffffffff1916145b80610549575061054882610d6d565b5b9050919050565b60605f805461055e90612285565b80601f016020809104026020016040519081016040528092919081815260200182805461058a90612285565b80156105d55780601f106105ac576101008083540402835291602001916105d5565b820191905f5260205f20905b8154815290600101906020018083116105b857829003601f168201915b5050505050905090565b5f6105e982610dd6565b506105f382610e5c565b9050919050565b61060c8282610607610e95565b610e9c565b5050565b5f73ffffffffffffffffffffffffffffffffffffffff168273ffffffffffffffffffffffffffffffffffffffff1603610680575f6040517f64a0ae920000000000000000000000000000000000000000000000000000000081526004016106779190611dfd565b60405180910390fd5b5f610693838361068e610e95565b610eae565b90508373ffffffffffffffffffffffffffffffffffffffff168173ffffffffffffffffffffffffffffffffffffffff1614610709578382826040517f64283d7b000000000000000000000000000000000000000000000000000000008152600401610700939291906122b5565b60405180910390fd5b50505050565b61072983838360405180602001604052805f815250610bc2565b505050565b5f61073882610982565b90505f73ffffffffffffffffffffffffffffffffffffffff168173ffffffffffffffffffffffffffffffffffffffff16036107a8576040517f08c379a000000000000000000000000000000000000000000000000000000000815260040161079f90612334565b60405180910390fd5b3373ffffffffffffffffffffffffffffffffffffffff168173ffffffffffffffffffffffffffffffffffffffff1603610816576040517f08c379a000000000000000000000000000000000000000000000000000000000815260040161080d9061239c565b60405180910390fd5b67016345785d8a0000341015610861576040517f08c379a000000000000000000000000000000000000000000000000000000000815260040161085890612404565b60405180910390fd5b3073ffffffffffffffffffffffffffffffffffffffff16610881836105df565b73ffffffffffffffffffffffffffffffffffffffff16146108d7576040517f08c379a00000000000000000000000000000000000000000000000000000000081526004016108ce90612492565b60405180910390fd5b8073ffffffffffffffffffffffffffffffffffffffff166108fc3490811502906040515f60405180830381858888f1935050505015801561091a573d5f803e3d5ffd5b5061092681338461070f565b7f8562eb94748e30bb0071e932744ce902b460c683474fcb3bfd567ffa16b1afb28282333460405161095b94939291906124b0565b60405180910390a15050565b61096f6110b9565b806008908161097e9190612690565b5050565b5f61098c82610dd6565b9050919050565b5f8073ffffffffffffffffffffffffffffffffffffffff168273ffffffffffffffffffffffffffffffffffffffff1603610a04575f6040517f89c62b640000000000000000000000000000000000000000000000000000000081526004016109fb9190611dfd565b60405180910390fd5b60035f8373ffffffffffffffffffffffffffffffffffffffff1673ffffffffffffffffffffffffffffffffffffffff1681526020019081526020015f20549050919050565b610a516110b9565b610a5a5f611140565b565b5f60065f9054906101000a900473ffffffffffffffffffffffffffffffffffffffff16905090565b606060018054610a9390612285565b80601f0160208091040260200160405190810160405280929190818152602001828054610abf90612285565b8015610b0a5780601f10610ae157610100808354040283529160200191610b0a565b820191905f5260205f20905b815481529060010190602001808311610aed57829003601f168201915b5050505050905090565b610b1c6110b9565b610b2581611203565b15610b65576040517f08c379a0000000000000000000000000000000000000000000000000000000008152600401610b5c906127a9565b60405180910390fd5b610b6f828261122b565b5f6008610b7b8361131e565b604051602001610b8c929190612915565b6040516020818303038152906040529050610ba782826113e8565b505050565b610bbe610bb7610e95565b838361140b565b5050565b610bcd848484610610565b610bd984848484611574565b50505050565b6060610bea82611203565b610c29576040517f08c379a0000000000000000000000000000000000000000000000000000000008152600401610c20906129be565b60405180910390fd5b6008610c348361131e565b604051602001610c45929190612915565b6040516020818303038152906040529050919050565b5f60055f8473ffffffffffffffffffffffffffffffffffffffff1673ffffffffffffffffffffffffffffffffffffffff1681526020019081526020015f205f8373ffffffffffffffffffffffffffffffffffffffff1673ffffffffffffffffffffffffffffffffffffffff1681526020019081526020015f205f9054906101000a900460ff16905092915050565b610cf16110b9565b5f73ffffffffffffffffffffffffffffffffffffffff168173ffffffffffffffffffffffffffffffffffffffff1603610d61575f6040517f1e4fbdf7000000000000000000000000000000000000000000000000000000008152600401610d589190611dfd565b60405180910390fd5b610d6a81611140565b50565b5f7f01ffc9a7000000000000000000000000000000000000000000000000000000007bffffffffffffffffffffffffffffffffffffffffffffffffffffffff1916827bffffffffffffffffffffffffffffffffffffffffffffffffffffffff1916149050919050565b5f80610de183611726565b90505f73ffffffffffffffffffffffffffffffffffffffff168173ffffffffffffffffffffffffffffffffffffffff1603610e5357826040517f7e273289000000000000000000000000000000000000000000000000000000008152600401610e4a919061207b565b60405180910390fd5b80915050919050565b5f60045f8381526020019081526020015f205f9054906101000a900473ffffffffffffffffffffffffffffffffffffffff169050919050565b5f33905090565b610ea9838383600161175f565b505050565b5f80610eb984611726565b90505f73ffffffffffffffffffffffffffffffffffffffff168373ffffffffffffffffffffffffffffffffffffffff1614610efa57610ef981848661191e565b5b5f73ffffffffffffffffffffffffffffffffffffffff168173ffffffffffffffffffffffffffffffffffffffff1614610f8557610f395f855f8061175f565b600160035f8373ffffffffffffffffffffffffffffffffffffffff1673ffffffffffffffffffffffffffffffffffffffff1681526020019081526020015f205f82825403925050819055505b5f73ffffffffffffffffffffffffffffffffffffffff168573ffffffffffffffffffffffffffffffffffffffff161461100457600160035f8773ffffffffffffffffffffffffffffffffffffffff1673ffffffffffffffffffffffffffffffffffffffff1681526020019081526020015f205f82825401925050819055505b8460025f8681526020019081526020015f205f6101000a81548173ffffffffffffffffffffffffffffffffffffffff021916908373ffffffffffffffffffffffffffffffffffffffff160217905550838573ffffffffffffffffffffffffffffffffffffffff168273ffffffffffffffffffffffffffffffffffffffff167fddf252ad1be2c89b69c2b068fc378daa952ba7f163c4a11628f55a4df523b3ef60405160405180910390a4809150509392505050565b6110c1610e95565b73ffffffffffffffffffffffffffffffffffffffff166110df610a5c565b73ffffffffffffffffffffffffffffffffffffffff161461113e57611102610e95565b6040517f118cdaa70000000000000000000000000000000000000000000000000000000081526004016111359190611dfd565b60405180910390fd5b565b5f60065f9054906101000a900473ffffffffffffffffffffffffffffffffffffffff1690508160065f6101000a81548173ffffffffffffffffffffffffffffffffffffffff021916908373ffffffffffffffffffffffffffffffffffffffff1602179055508173ffffffffffffffffffffffffffffffffffffffff168173ffffffffffffffffffffffffffffffffffffffff167f8be0079c531659141344cd1fd0a4f28419497f9722a3daafe3b4186f6b6457e060405160405180910390a35050565b5f8060095f8481526020019081526020015f20805461122190612285565b9050119050919050565b5f73ffffffffffffffffffffffffffffffffffffffff168273ffffffffffffffffffffffffffffffffffffffff160361129b575f6040517f64a0ae920000000000000000000000000000000000000000000000000000000081526004016112929190611dfd565b60405180910390fd5b5f6112a783835f610eae565b90505f73ffffffffffffffffffffffffffffffffffffffff168173ffffffffffffffffffffffffffffffffffffffff1614611319575f6040517f73c6ac6e0000000000000000000000000000000000000000000000000000000081526004016113109190611dfd565b60405180910390fd5b505050565b60605f600161132c846119e1565b0190505f8167ffffffffffffffff81111561134a57611349611ed6565b5b6040519080825280601f01601f19166020018201604052801561137c5781602001600182028036833780820191505090505b5090505f82602001820190505b6001156113dd578080600190039150507f3031323334353637383961626364656600000000000000000000000000000000600a86061a8153600a85816113d2576113d16129dc565b5b0494505f8503611389575b819350505050919050565b8060095f8481526020019081526020015f2090816114069190612690565b505050565b5f73ffffffffffffffffffffffffffffffffffffffff168273ffffffffffffffffffffffffffffffffffffffff160361147b57816040517f5b08ba180000000000000000000000000000000000000000000000000000000081526004016114729190611dfd565b60405180910390fd5b8060055f8573ffffffffffffffffffffffffffffffffffffffff1673ffffffffffffffffffffffffffffffffffffffff1681526020019081526020015f205f8473ffffffffffffffffffffffffffffffffffffffff1673ffffffffffffffffffffffffffffffffffffffff1681526020019081526020015f205f6101000a81548160ff0219169083151502179055508173ffffffffffffffffffffffffffffffffffffffff168373ffffffffffffffffffffffffffffffffffffffff167f17307eab39ab6107e8899845ad3d59bd9653f200f220920489ca2b5937696c31836040516115679190611c9d565b60405180910390a3505050565b5f8373ffffffffffffffffffffffffffffffffffffffff163b1115611720578273ffffffffffffffffffffffffffffffffffffffff1663150b7a026115b7610e95565b8685856040518563ffffffff1660e01b81526004016115d99493929190612a5b565b6020604051808303815f875af192505050801561161457506040513d601f19601f820116820180604052508101906116119190612ab9565b60015b611695573d805f8114611642576040519150601f19603f3d011682016040523d82523d5f602084013e611647565b606091505b505f81510361168d57836040517f64a0ae920000000000000000000000000000000000000000000000000000000081526004016116849190611dfd565b60405180910390fd5b805181602001fd5b63150b7a0260e01b7bffffffffffffffffffffffffffffffffffffffffffffffffffffffff1916817bffffffffffffffffffffffffffffffffffffffffffffffffffffffff19161461171e57836040517f64a0ae920000000000000000000000000000000000000000000000000000000081526004016117159190611dfd565b60405180910390fd5b505b50505050565b5f60025f8381526020019081526020015f205f9054906101000a900473ffffffffffffffffffffffffffffffffffffffff169050919050565b808061179757505f73ffffffffffffffffffffffffffffffffffffffff168273ffffffffffffffffffffffffffffffffffffffff1614155b156118c9575f6117a684610dd6565b90505f73ffffffffffffffffffffffffffffffffffffffff168373ffffffffffffffffffffffffffffffffffffffff161415801561181057508273ffffffffffffffffffffffffffffffffffffffff168173ffffffffffffffffffffffffffffffffffffffff1614155b801561182357506118218184610c5b565b155b1561186557826040517fa9fbf51f00000000000000000000000000000000000000000000000000000000815260040161185c9190611dfd565b60405180910390fd5b81156118c757838573ffffffffffffffffffffffffffffffffffffffff168273ffffffffffffffffffffffffffffffffffffffff167f8c5be1e5ebec7d5bd14f71427d1e84f3dd0314c0f7b2291e5b200ac8c7c3b92560405160405180910390a45b505b8360045f8581526020019081526020015f205f6101000a81548173ffffffffffffffffffffffffffffffffffffffff021916908373ffffffffffffffffffffffffffffffffffffffff16021790555050505050565b611929838383611b32565b6119dc575f73ffffffffffffffffffffffffffffffffffffffff168373ffffffffffffffffffffffffffffffffffffffff160361199d57806040517f7e273289000000000000000000000000000000000000000000000000000000008152600401611994919061207b565b60405180910390fd5b81816040517f177e802f0000000000000000000000000000000000000000000000000000000081526004016119d3929190612ae4565b60405180910390fd5b505050565b5f805f90507a184f03e93ff9f4daa797ed6e38ed64bf6a1f0100000000000000008310611a3d577a184f03e93ff9f4daa797ed6e38ed64bf6a1f0100000000000000008381611a3357611a326129dc565b5b0492506040810190505b6d04ee2d6d415b85acef81000000008310611a7a576d04ee2d6d415b85acef81000000008381611a7057611a6f6129dc565b5b0492506020810190505b662386f26fc100008310611aa957662386f26fc100008381611a9f57611a9e6129dc565b5b0492506010810190505b6305f5e1008310611ad2576305f5e1008381611ac857611ac76129dc565b5b0492506008810190505b6127108310611af7576127108381611aed57611aec6129dc565b5b0492506004810190505b60648310611b1a5760648381611b1057611b0f6129dc565b5b0492506002810190505b600a8310611b29576001810190505b80915050919050565b5f8073ffffffffffffffffffffffffffffffffffffffff168373ffffffffffffffffffffffffffffffffffffffff1614158015611be957508273ffffffffffffffffffffffffffffffffffffffff168473ffffffffffffffffffffffffffffffffffffffff161480611baa5750611ba98484610c5b565b5b80611be857508273ffffffffffffffffffffffffffffffffffffffff16611bd083610e5c565b73ffffffffffffffffffffffffffffffffffffffff16145b5b90509392505050565b5f604051905090565b5f80fd5b5f80fd5b5f7fffffffff0000000000000000000000000000000000000000000000000000000082169050919050565b611c3781611c03565b8114611c41575f80fd5b50565b5f81359050611c5281611c2e565b92915050565b5f60208284031215611c6d57611c6c611bfb565b5b5f611c7a84828501611c44565b91505092915050565b5f8115159050919050565b611c9781611c83565b82525050565b5f602082019050611cb05f830184611c8e565b92915050565b5f81519050919050565b5f82825260208201905092915050565b5f5b83811015611ced578082015181840152602081019050611cd2565b5f8484015250505050565b5f601f19601f8301169050919050565b5f611d1282611cb6565b611d1c8185611cc0565b9350611d2c818560208601611cd0565b611d3581611cf8565b840191505092915050565b5f6020820190508181035f830152611d588184611d08565b905092915050565b5f819050919050565b611d7281611d60565b8114611d7c575f80fd5b50565b5f81359050611d8d81611d69565b92915050565b5f60208284031215611da857611da7611bfb565b5b5f611db584828501611d7f565b91505092915050565b5f73ffffffffffffffffffffffffffffffffffffffff82169050919050565b5f611de782611dbe565b9050919050565b611df781611ddd565b82525050565b5f602082019050611e105f830184611dee565b92915050565b611e1f81611ddd565b8114611e29575f80fd5b50565b5f81359050611e3a81611e16565b92915050565b5f8060408385031215611e5657611e55611bfb565b5b5f611e6385828601611e2c565b9250506020611e7485828601611d7f565b9150509250929050565b5f805f60608486031215611e9557611e94611bfb565b5b5f611ea286828701611e2c565b9350506020611eb386828701611e2c565b9250506040611ec486828701611d7f565b9150509250925092565b5f80fd5b5f80fd5b7f4e487b71000000000000000000000000000000000000000000000000000000005f52604160045260245ffd5b611f0c82611cf8565b810181811067ffffffffffffffff82111715611f2b57611f2a611ed6565b5b80604052505050565b5f611f3d611bf2565b9050611f498282611f03565b919050565b5f67ffffffffffffffff821115611f6857611f67611ed6565b5b611f7182611cf8565b9050602081019050919050565b828183375f83830152505050565b5f611f9e611f9984611f4e565b611f34565b905082815260208101848484011115611fba57611fb9611ed2565b5b611fc5848285611f7e565b509392505050565b5f82601f830112611fe157611fe0611ece565b5b8135611ff1848260208601611f8c565b91505092915050565b5f6020828403121561200f5761200e611bfb565b5b5f82013567ffffffffffffffff81111561202c5761202b611bff565b5b61203884828501611fcd565b91505092915050565b5f6020828403121561205657612055611bfb565b5b5f61206384828501611e2c565b91505092915050565b61207581611d60565b82525050565b5f60208201905061208e5f83018461206c565b92915050565b61209d81611c83565b81146120a7575f80fd5b50565b5f813590506120b881612094565b92915050565b5f80604083850312156120d4576120d3611bfb565b5b5f6120e185828601611e2c565b92505060206120f2858286016120aa565b9150509250929050565b5f67ffffffffffffffff82111561211657612115611ed6565b5b61211f82611cf8565b9050602081019050919050565b5f61213e612139846120fc565b611f34565b90508281526020810184848401111561215a57612159611ed2565b5b612165848285611f7e565b509392505050565b5f82601f83011261218157612180611ece565b5b813561219184826020860161212c565b91505092915050565b5f805f80608085870312156121b2576121b1611bfb565b5b5f6121bf87828801611e2c565b94505060206121d087828801611e2c565b93505060406121e187828801611d7f565b925050606085013567ffffffffffffffff81111561220257612201611bff565b5b61220e8782880161216d565b91505092959194509250565b5f80604083850312156122305761222f611bfb565b5b5f61223d85828601611e2c565b925050602061224e85828601611e2c565b9150509250929050565b7f4e487b71000000000000000000000000000000000000000000000000000000005f52602260045260245ffd5b5f600282049050600182168061229c57607f821691505b6020821081036122af576122ae612258565b5b50919050565b5f6060820190506122c85f830186611dee565b6122d5602083018561206c565b6122e26040830184611dee565b949350505050565b7f496e76616c696420746f6b656e204944000000000000000000000000000000005f82015250565b5f61231e601083611cc0565b9150612329826122ea565b602082019050919050565b5f6020820190508181035f83015261234b81612312565b9050919050565b7f596f752063616e6e6f742062757920796f7572206f776e204e465400000000005f82015250565b5f612386601b83611cc0565b915061239182612352565b602082019050919050565b5f6020820190508181035f8301526123b38161237a565b9050919050565b7f496e73756666696369656e742066756e647300000000000000000000000000005f82015250565b5f6123ee601283611cc0565b91506123f9826123ba565b602082019050919050565b5f6020820190508181035f83015261241b816123e2565b9050919050565b7f436f6e7472616374206e6f7420617070726f76656420746f207472616e7366655f8201527f72207468697320746f6b656e0000000000000000000000000000000000000000602082015250565b5f61247c602c83611cc0565b915061248782612422565b604082019050919050565b5f6020820190508181035f8301526124a981612470565b9050919050565b5f6080820190506124c35f83018761206c565b6124d06020830186611dee565b6124dd6040830185611dee565b6124ea606083018461206c565b95945050505050565b5f819050815f5260205f209050919050565b5f6020601f8301049050919050565b5f82821b905092915050565b5f6008830261254f7fffffffffffffffffffffffffffffffffffffffffffffffffffffffffffffffff82612514565b6125598683612514565b95508019841693508086168417925050509392505050565b5f819050919050565b5f61259461258f61258a84611d60565b612571565b611d60565b9050919050565b5f819050919050565b6125ad8361257a565b6125c16125b98261259b565b848454612520565b825550505050565b5f90565b6125d56125c9565b6125e08184846125a4565b505050565b5b81811015612603576125f85f826125cd565b6001810190506125e6565b5050565b601f82111561264857612619816124f3565b61262284612505565b81016020851015612631578190505b61264561263d85612505565b8301826125e5565b50505b505050565b5f82821c905092915050565b5f6126685f198460080261264d565b1980831691505092915050565b5f6126808383612659565b9150826002028217905092915050565b61269982611cb6565b67ffffffffffffffff8111156126b2576126b1611ed6565b5b6126bc8254612285565b6126c7828285612607565b5f60209050601f8311600181146126f8575f84156126e6578287015190505b6126f08582612675565b865550612757565b601f198416612706866124f3565b5f5b8281101561272d57848901518255600182019150602085019450602081019050612708565b8683101561274a5784890151612746601f891682612659565b8355505b6001600288020188555050505b505050505050565b7f546f6b656e20494420616c7265616479206578697374730000000000000000005f82015250565b5f612793601783611cc0565b915061279e8261275f565b602082019050919050565b5f6020820190508181035f8301526127c081612787565b9050919050565b5f81905092915050565b5f81546127dd81612285565b6127e781866127c7565b9450600182165f8114612801576001811461281657612848565b60ff1983168652811515820286019350612848565b61281f856124f3565b5f5b8381101561284057815481890152600182019150602081019050612821565b838801955050505b50505092915050565b7f2f000000000000000000000000000000000000000000000000000000000000005f82015250565b5f6128856001836127c7565b915061289082612851565b600182019050919050565b5f6128a582611cb6565b6128af81856127c7565b93506128bf818560208601611cd0565b80840191505092915050565b7f2e6a736f6e0000000000000000000000000000000000000000000000000000005f82015250565b5f6128ff6005836127c7565b915061290a826128cb565b600582019050919050565b5f61292082856127d1565b915061292b82612879565b9150612937828461289b565b9150612942826128f3565b91508190509392505050565b7f4552433732314d657461646174613a2055524920717565727920666f72206e6f5f8201527f6e6578697374656e7420746f6b656e0000000000000000000000000000000000602082015250565b5f6129a8602f83611cc0565b91506129b38261294e565b604082019050919050565b5f6020820190508181035f8301526129d58161299c565b9050919050565b7f4e487b71000000000000000000000000000000000000000000000000000000005f52601260045260245ffd5b5f81519050919050565b5f82825260208201905092915050565b5f612a2d82612a09565b612a378185612a13565b9350612a47818560208601611cd0565b612a5081611cf8565b840191505092915050565b5f608082019050612a6e5f830187611dee565b612a7b6020830186611dee565b612a88604083018561206c565b8181036060830152612a9a8184612a23565b905095945050505050565b5f81519050612ab381611c2e565b92915050565b5f60208284031215612ace57612acd611bfb565b5b5f612adb84828501612aa5565b91505092915050565b5f604082019050612af75f830185611dee565b612b04602083018461206c565b939250505056fea26469706673582212202741e9a0c6e6e92e40aa078c5bddbafcbb08b9e020ac7444bd3dab4e2faf8fa664736f6c63430008150033",
  "immutableReferences": {},
  "source": "// SPDX-License-Identifier: MIT\r\npragma solidity ^0.8.21;\r\n\r\nimport \"@openzeppelin/contracts/token/ERC721/ERC721.sol\";\r\nimport \"@openzeppelin/contracts/access/Ownable.sol\";\r\nimport \"@openzeppelin/contracts/utils/Strings.sol\";\r\n\r\ncontract SportMinter is ERC721, Ownable {\r\n    using Strings for uint256;\r\n\r\n    uint256 private _tokenIdCounter;\r\n    string private _baseTokenURI;\r\n    mapping(uint256 => string) private _tokenURIs;\r\n\r\n    constructor() ERC721(\"MyNFT\", \"MNFT\") Ownable(msg.sender) {\r\n        _tokenIdCounter = 0;\r\n    }\r\n\r\n    function safeMint(address to, uint256 tokenId) public onlyOwner {\r\n    require(!_exists(tokenId), \"Token ID already exists\");\r\n\r\n    _mint(to, tokenId); // Mint the token\r\n    string memory metadataURI = string(abi.encodePacked(_baseTokenURI, \"/\", tokenId.toString(), \".json\"));\r\n    _setTokenURI(tokenId, metadataURI); \r\n    }\r\n\r\n\r\n    function setBaseURI(string memory baseURI) public onlyOwner {\r\n        _baseTokenURI = baseURI;\r\n    }\r\n\r\n    function _baseURI() internal view override returns (string memory) {\r\n        return _baseTokenURI;\r\n    }\r\n\r\n    function tokenURI(uint256 tokenId) public view override returns (string memory) {\r\n        require(_exists(tokenId), \"ERC721Metadata: URI query for nonexistent token\");\r\n        return string(abi.encodePacked(_baseTokenURI, \"/\", tokenId.toString(), \".json\"));\r\n    }\r\n\r\n    function _setTokenURI(uint256 tokenId, string memory uri) internal {\r\n        _tokenURIs[tokenId] = uri;\r\n    }\r\n\r\n    function _exists(uint256 tokenId) internal view returns (bool) {\r\n        return bytes(_tokenURIs[tokenId]).length > 0;\r\n    }\r\n    // Event to log the sale of an NFT\r\n    event NFTSold(uint256 tokenId, address from, address to, uint256 value);\r\n\r\n    // Buying NFT function\r\n    function buyNFT(uint256 tokenId) public payable {\r\n    address owner = ownerOf(tokenId);\r\n    require(owner != address(0), \"Invalid token ID\");\r\n    require(owner != msg.sender, \"You cannot buy your own NFT\");\r\n    require(msg.value >= 0.1 ether, \"Insufficient funds\");\r\n    require(getApproved(tokenId) == address(this), \"Contract not approved to transfer this token\");\r\n\r\n    // Transfer the funds to the current owner\r\n    payable(owner).transfer(msg.value);\r\n\r\n    // Transfer ownership\r\n    safeTransferFrom(owner, msg.sender, tokenId);\r\n\r\n    // Emit the sale event\r\n    emit NFTSold(tokenId, owner, msg.sender, msg.value);\r\n}\r\n\r\n\r\n}\r\n",
  "sourcePath": "C:\\Users\\siran\\Desktop\\IRELAND\\NCI_COURSES\\Blockchain\\sports\\contracts\\SportMinter.sol",
  "compiler": {
    "name": "solc",
    "version": "0.8.21+commit.d9974bed.Emscripten.clang"
  },
  "schemaVersion": "3.4.16",
  "updatedAt": "2023-12-15T20:24:06.605Z",
  "networkType": "ethereum",
  "devdoc": {
    "errors": {
      "ERC721IncorrectOwner(address,uint256,address)": [
        {
          "details": "Indicates an error related to the ownership over a particular token. Used in transfers.",
          "params": {
            "owner": "Address of the current owner of a token.",
            "sender": "Address whose tokens are being transferred.",
            "tokenId": "Identifier number of a token."
          }
        }
      ],
      "ERC721InsufficientApproval(address,uint256)": [
        {
          "details": "Indicates a failure with the `operator`s approval. Used in transfers.",
          "params": {
            "operator": "Address that may be allowed to operate on tokens without being their owner.",
            "tokenId": "Identifier number of a token."
          }
        }
      ],
      "ERC721InvalidApprover(address)": [
        {
          "details": "Indicates a failure with the `approver` of a token to be approved. Used in approvals.",
          "params": {
            "approver": "Address initiating an approval operation."
          }
        }
      ],
      "ERC721InvalidOperator(address)": [
        {
          "details": "Indicates a failure with the `operator` to be approved. Used in approvals.",
          "params": {
            "operator": "Address that may be allowed to operate on tokens without being their owner."
          }
        }
      ],
      "ERC721InvalidOwner(address)": [
        {
          "details": "Indicates that an address can't be an owner. For example, `address(0)` is a forbidden owner in EIP-20. Used in balance queries.",
          "params": {
            "owner": "Address of the current owner of a token."
          }
        }
      ],
      "ERC721InvalidReceiver(address)": [
        {
          "details": "Indicates a failure with the token `receiver`. Used in transfers.",
          "params": {
            "receiver": "Address to which tokens are being transferred."
          }
        }
      ],
      "ERC721InvalidSender(address)": [
        {
          "details": "Indicates a failure with the token `sender`. Used in transfers.",
          "params": {
            "sender": "Address whose tokens are being transferred."
          }
        }
      ],
      "ERC721NonexistentToken(uint256)": [
        {
          "details": "Indicates a `tokenId` whose `owner` is the zero address.",
          "params": {
            "tokenId": "Identifier number of a token."
          }
        }
      ],
      "OwnableInvalidOwner(address)": [
        {
          "details": "The owner is not a valid owner account. (eg. `address(0)`)"
        }
      ],
      "OwnableUnauthorizedAccount(address)": [
        {
          "details": "The caller account is not authorized to perform an operation."
        }
      ]
    },
    "events": {
      "Approval(address,address,uint256)": {
        "details": "Emitted when `owner` enables `approved` to manage the `tokenId` token."
      },
      "ApprovalForAll(address,address,bool)": {
        "details": "Emitted when `owner` enables or disables (`approved`) `operator` to manage all of its assets."
      },
      "Transfer(address,address,uint256)": {
        "details": "Emitted when `tokenId` token is transferred from `from` to `to`."
      }
    },
    "kind": "dev",
    "methods": {
      "approve(address,uint256)": {
        "details": "See {IERC721-approve}."
      },
      "balanceOf(address)": {
        "details": "See {IERC721-balanceOf}."
      },
      "getApproved(uint256)": {
        "details": "See {IERC721-getApproved}."
      },
      "isApprovedForAll(address,address)": {
        "details": "See {IERC721-isApprovedForAll}."
      },
      "name()": {
        "details": "See {IERC721Metadata-name}."
      },
      "owner()": {
        "details": "Returns the address of the current owner."
      },
      "ownerOf(uint256)": {
        "details": "See {IERC721-ownerOf}."
      },
      "renounceOwnership()": {
        "details": "Leaves the contract without owner. It will not be possible to call `onlyOwner` functions. Can only be called by the current owner. NOTE: Renouncing ownership will leave the contract without an owner, thereby disabling any functionality that is only available to the owner."
      },
      "safeTransferFrom(address,address,uint256)": {
        "details": "See {IERC721-safeTransferFrom}."
      },
      "safeTransferFrom(address,address,uint256,bytes)": {
        "details": "See {IERC721-safeTransferFrom}."
      },
      "setApprovalForAll(address,bool)": {
        "details": "See {IERC721-setApprovalForAll}."
      },
      "supportsInterface(bytes4)": {
        "details": "See {IERC165-supportsInterface}."
      },
      "symbol()": {
        "details": "See {IERC721Metadata-symbol}."
      },
      "tokenURI(uint256)": {
        "details": "See {IERC721Metadata-tokenURI}."
      },
      "transferFrom(address,address,uint256)": {
        "details": "See {IERC721-transferFrom}."
      },
      "transferOwnership(address)": {
        "details": "Transfers ownership of the contract to a new account (`newOwner`). Can only be called by the current owner."
      }
    },
    "version": 1
  },
  "userdoc": {
    "kind": "user",
    "methods": {},
    "version": 1
  }
}